:020000020000FC
:0200000028C016
:0200040018954D
:02000800189549
:02000C00189545
:02001000189541
:0200140018953D
:02001800189539
:02001C00189535
:02002000189531
:0200240018952D
:02002800189529
:02002C0097C07B
:02003000189521
:02003400D0C03A
:02003800189519
:02003C00189515
:02004000189511
:0200440018950D
:02004800189509
:02004C00189505
:1000500018950FE50DBF04E00EBF0FE107BB00EEE2
:1000600008BB02E001BB0FEF02BB0EE010E009B9D4
:1000700010BD00E90AB906EA00BD00E00FBD08E0C6
:100080000EBD18ED00E01BBD0ABD2224789421FCB2
:1000900065C001D0FCCF15D005D008D012D002D059
:1000A00005D0089521FEFECF0FD00895E89420FEDC
:1000B000689420F807B1007620FE01C0016007B9FE
:1000C00008950EE806B9089504E0083011F403E03D
:1000D0000AC0043011F402E006C0023011F401E05D
:1000E00002C0013029F0369447940A950030D9F7C0
:1000F0003694479436944794042D3324442420FEA8
:10010000202F20FC302F023118F0E89421F80895B8
:1001100020FE02C020FC04C051E07FEF81E004C05B
:1001200061E07FEF82E000C050D0E89421F80895AC
:100130000F931F930FB70F9304B115B1400E311EEB
:100140009395943039F00EEC06B90F910FBF1F91C3
:100150000F9118959927689421F8F7CF0F931F9363
:100160000FB70F931BB10CB10DC071E081E02DD022
:100170000F910FBF1F910F9118950F910FBF1F91F6
:100180000F9118951C7109F0F0CF013021F0023069
:1001900039F00A3A51F0503079F403E008BB08C056
:1001A000603051F40CE008BB03C000E008BB00C0A5
:1001B00071E081E00AD0E1CF71E082E006D0DDCFCE
:1001C00000950715D1F6689421F8C49A08E40AB995
:1001D00021F87CB908950F930FB70F931F938CB933
:0C01E00000E90AB9C498689422F8189548
:00000001FF
