:020000040800F2
:10000000600600209D010008DF2D0008B92A0008C5
:10001000DD2D0008870400082332000800000000DE
:100020000000000000000000000000004330000855
:10003000D906000800000000012E00084530000825
:10004000B7010008B7010008B7010008B7010008B0
:10005000B7010008B7010008B7010008B7010008A0
:10006000B7010008B7010008B7010008B701000890
:10007000B7010008B7010008B7010008B701000880
:10008000B7010008B7010008B7010008BD05000866
:10009000B7010008B7010008B7010008B701000860
:1000A000B7010008B7010008B7010008B701000850
:1000B000B7010008B701000800000000B701000800
:1000C000B70100080000000000000000B7010008B0
:1000D00000000000B7010008B7010008B7010008E0
:1000E000B7010008B7010008000000000000000090
:1000F0000000000000000000000000000000000000
:1001000000000000000000000000000000000000EF
:100110000000000000000000B7010008B70100085F
:1001200000000000000000000000000000000000CF
:1001300000000000000000000000000000000000BF
:10014000B7010008B701000800000000000000002F
:10015000000000000000000000000000000000009F
:10016000000000000000000000000000000000008F
:10017000000000000000000000000000000000007F
:1001800000000000B7010008DFF80CD000F028F9EB
:1001900000480047453200086006002006488047B6
:1001A00006480047FEE7FEE7FEE7FEE7FEE7FEE75C
:1001B000FEE7FEE7FEE7FEE7C93000088901000818
:1001C000202A04DB203A21FA02F00021704721FAAC
:1001D00002F3D040C2F12002914008431946704713
:1001E0002DE9FE4F81EA030404F0004421F00041B0
:1001F00000944FF0000B23F0004350EA01045ED05E
:1002000052EA03045BD0C3F30A54C1F30A552C44E9
:10021000A4F2F3340194A0FB0254C1F3130141F49E
:100220008011C3F3130343F4801301FB024400FB6A
:10023000034E840A970A44EA815447EA8357A4FB91
:10024000076802958D0A05FB07854FEA932C04FB8E
:100250000C542705029D4FEA065847EA1637B5EBBE
:1002600008056EEB070C870E920E47EA811742EAEB
:100270008312A7FB0201B6EB0B0164EB00042B0D0C
:1002800043EA0C335E1844EB1C50DA465146E7FB58
:100290000201C5F313044FEA0B3343EA14534FEA48
:1002A0000432019C43EA0603A4F10C040294009C6E
:1002B000CDE900B400F045F803B0BDE8F08F0020B0
:1002C0000146F9E70EB5C10F80EAE0700844CA079D
:1002D000002140F233438DE80E000A460B4600F041
:1002E00030F803B000BD70B5C1F30A5201F000450B
:1002F0000024C1F3130140F2FF3341F480119A420C
:1003000001DA002070BD40F233439A42A2F2334238
:1003100003DC5242FFF754FF00E090402C43F1D041
:10032000404270BD10B5141E73F1000408DA401C81
:1003300041F1000192185B411A4301D120F0010004
:1003400010BD2DE9F04D92469B4611B1B1FA81F2F4
:1003500002E0B0FA80F22032904600F053F80446F2
:100360000F4640EA0A0041EA0B0153465A46084349
:1003700013D0114653EA010019D0C8F1400250468B
:10038000FFF71EFF05460E4650465946424600F00E
:1003900039F8084305D0012004E020463946BDE87D
:1003A000F08D0020054346EAE0762C4337430A9857
:1003B0006305E40AA0EB08000022FD0A44EA475462
:1003C0000A3002D500200146E9E70105101969410C
:1003D000DDE9084500196941BDE8F04DA2E70000DC
:1003E000064C074D06E0E06840F0010394E8070082
:1003F00098471034AC42F6D3FFF7CAFE70350008B8
:1004000090350008202A04DB203A00FA02F100208F
:1004100070479140C2F1200320FA03F31943904042
:100420007047000070B504460068816801F0030160
:10043000012926D10168C90723D0816801F00D0187
:10044000012910D1816841F00201816021680320F7
:10045000086001F09DFA05460FE000BF01F098FA30
:10046000401B022809D9606C40F010006064A06C49
:1004700040F00100A064012070BD20688068C007C2
:10048000ECD1002070BDFEE710B500295CD0826B76
:100490004FF4D873046803EB0113E45814F0040418
:1004A00094600468E45851D0E40854600468E35848
:1004B000C3F34003D3604FF4DA73046803EB011312
:1004C000E45804F00F0414610468E358C3F30723ED
:1004D000C2E907314FF4DC73046803EB0113E458FD
:1004E00014750468E458240A54750468E458240C0C
:1004F00094750468E3581B0ED3754FF4DE730468DB
:1005000003EB0113E45814760468E458240A547683
:100510000468E458240C94760468E3581B0ED376E0
:100520000268B1B1136943F0200313610268536993
:1005300023F05003536190F83D20222A12D090F806
:100540003D20322A0ED012E0426BA1E7640D146008
:10055000ACE7D36843F02003D3600268536923F00B
:100560000A03E7E70268536923F40F435361122239
:100570000123002990F83D1006D0522914D0622999
:1005800015D0722906D114E042290DD0622907D076
:10059000722907D080F83D3000F0A2FF002010BD86
:1005A000322107E0522105E080F83D20F4E72221C6
:1005B00000E0422180F83D10EEE70000014800F025
:1005C000C5BD00001C01002001221146014801F0B8
:1005D000D9B900000004004801220221014801F0BD
:1005E000D1B900000004004801228021014801F037
:1005F000C9B900000004004801224021014801F06F
:10060000C1B900000004004810B50B4C00220121C4
:10061000204601F0B7F901220221204601F0B2F98B
:1006200001228021204601F0ADF920460122BDE8DB
:100630001040402101F0A6B90004004810B50B4C51
:1006400001221146204601F09DF900220221204698
:1006500001F098F901228021204601F093F920460B
:100660000122BDE81040402101F08CB9000400488F
:1006700010B50B4C01221146204601F083F90122EE
:100680000221204601F07EF900228021204601F05F
:1006900079F920460122BDE81040402101F072B9ED
:1006A0000004004810B50B4C01221146204601F011
:1006B00069F901220221204601F064F9012280211A
:1006C000204601F05FF920460022BDE8104040219D
:1006D00001F058B90004004870470000F0B500234D
:1006E00095B01D46009390F8404002691E46012CCB
:1006F0000BD00124EE4F80F840404AB18A69012AAC
:1007000006D0066D3EB3C26C36E0022015B0F0BDD7
:100710004A68012A05D0426C42F02002426401235B
:1007200049E08A6A012A09D0D1F82CC042EA0C02B9
:10073000D1F800C046EA0C26324302E00A6846EAD5
:100740000222D0F800C0DCF84C603E401643CCF8E2
:100750004C60C2642FE0C0E913528A6A012A08D0B3
:10076000D1F818C0CE6AACF1010C46EA0C0632434F
:1007700001E08A69521EC2640E7906EB460C02261D
:1007800006EB4C064FF01F0C0CFA06FC22EA0C029A
:10079000D1F800C00CFA06FC42EA0C02C264066DF5
:1007A000761E066507D1D0F800C0DCF84C603E40EC
:1007B0001643CCF84C600268966836071CD40E6A63
:1007C00056B1D6688F8C26F4401646EA4756D66056
:1007D000CA69012A0BD00FE08E8C8F8B760546EA12
:1007E0000756D76827F440173E43D66004E0426CB2
:1007F00042F02002426401230668B26812F00C0F36
:100800004FF007027ED18F6A012FF76827F000773B
:1008100004D0F7600E6A012E06D00AE091F820C0DD
:1008200047EA4C67F76004E0436C43F020034364FD
:1008300001230E6807680A2E11D3D7F818C00A3EA4
:1008400006EB460602FA06FE2CEA0E0CD1F808E08A
:100850000EFA06FE4CEA0E0CC7F818C00FE0D7F8E7
:1008600014C006EB460602FA06FE2CEA0E0CD1F87E
:1008700008E00EFA06FE4CEA0E0CC7F814C0066833
:100880004F69D6F80CC0D1F810E0CCF3C10C4FEA98
:100890004C0C07FA0CF7DFF81CC2BEF1010F44D074
:1008A000BEF1020F4FD0BEF1030F5AD0BEF1040FBC
:1008B00065D0376E91F800C007F0F847B7EB8C6F42
:1008C00003D1376E27F0004737660668776E91F8D8
:1008D00000C007F0F847B7EB8C6F03D1776E27F0B5
:1008E000004777660668B76E91F800C007F0F847D2
:1008F000B7EB8C6F03D1B76E27F00047B766066879
:10090000F76E00E00AE091F800C007F0F847B7EB97
:100910008C6F03D1F76E27F00047F7660668B7685B
:1009200007F00307012F3AD136E0D6F860E00EEA6F
:100930000C0E91F800C047EA8C674EEA070E4EF0A5
:1009400000473766EAE7D6F864E00EEA0C0E91F845
:1009500000C047EA8C674EEA070E4EF00047776604
:10096000DCE7D6F868E00EEA0C0E91F800C047EA22
:100970008C674EEA070E4EF00047B766CEE7D6F812
:100980006CE00EEA0C0E91F800C047EA8C674EEA64
:10099000070E4EF00047C0E73768FF075ED1CF680B
:1009A000012F06D056F8B02F0F78BC40A24332601A
:1009B00020E056F8B07F91F800C004FA0CF4274309
:1009C00037600C6806680A2C0AD3B769093C04EB47
:1009D0004404A24097438A68A2401743B76109E0E4
:1009E0007769641C04EB4404A24097438A68A240E0
:1009F000174377610968304A102904D0112905D0BE
:100A0000122906D02AE09468240204E09468E401E4
:100A100001E094686402002C20DB04684FF0A046DB
:100A2000B44202D1254F009700E00096A76807F076
:100A30000307012F02D12768FF070AD1009F8FB15A
:100A4000BF6807F00307012F0CD1009F3F68FF0725
:100A500008D0416C41F020014164012380F84050EE
:100A6000184653E6102908D011291AD01229F5D1B9
:100A7000916841F480019160F0E7B442EED1916851
:100A800041F4000191600E490E4A0968B1FBF2F190
:100A900001EB8101490000E0491E00910029FBD1D2
:100AA000DCE7B442DAD1916841F08071E3E70000FD
:100AB0000020088200F0FF83000300500001005076
:100AC0007000002040420F0070B5026800234FF014
:100AD000A04495B0A24200D1304C009490F8404020
:100AE000012C1ED0012480F84040926852074BD45C
:100AF000009A9268520747D4294A0D6840F61F743D
:100B00003DB39568466B25F4604545EA46354E6829
:100B1000354395600568AE6806F00306012E06D1E0
:100B200002E0022015B070BD2D68ED0731D1009DA7
:100B3000AD6805F00305012D03D1009D2D68ED077B
:100B400027D10D6889680D439168A1430D439560D5
:100B50001FE0916821F46041916001688D6805F0A3
:100B60000305012D02D10968C90712D100998968CE
:100B700001F00301012903D100990968C90708D1CF
:100B80009168A143916004E0416C41F0200141640F
:100B90000123002180F840101846C3E700010050EF
:100BA00000030050F0B595B00025009590F8402066
:100BB0002E46012A19D0012780F8407003689A68F0
:100BC00052077CD44A681F24052A11D2D3F830C0BA
:100BD00002EB4202520094402CEA040C0C68944050
:100BE0004CEA040CC3F830C035E0022015B0F0BD6B
:100BF0000A2A0FD2D3F834C0521F02EB420252002D
:100C000094402CEA040C0C6894404CEA040CC3F8A1
:100C100034C020E00F2A0FD2D3F838C00A3A02EBD2
:100C20004202520094402CEA040C0C6894404CEAB6
:100C3000040CC3F838C00EE0D3F83CC00F3A02EB06
:100C40004202520094402CEA040C0C6894404CEA96
:100C5000040CC3F83CC00268936813F00C0F4FF00B
:100C6000070374D1D1F800E0BEF10A0F10D39469E4
:100C7000AEF10A0E0EEB4E0C03FA0CFE24EA0E0443
:100C8000D1F808E00EFA0CFE44EA0E0494610FE07D
:100C9000D2F814C00EEB4E0403FA04FE2CEA0E0C3C
:100CA000D1F808E00EFA04FE4CEA0E0CC2F814C0AB
:100CB00002684C69D2F80CC0CCF3C10C00E0E1E052
:100CC0004FEA4C0C04FA0CF4D1F810E0DFF810C233
:100CD000BEF1010F42D0BEF1020F4DD0BEF1030FA5
:100CE00058D0BEF1040F63D0146E91F800C004F028
:100CF000F844B4EB8C6F03D1146E24F000441466F6
:100D00000268546E91F800C004F0F844B4EB8C6FA4
:100D100003D1546E24F0004454660268946E91F836
:100D200000C004F0F844B4EB8C6F03D1946E24F04F
:100D3000004494660268D46E91F800C004F0F84450
:100D4000B4EB8C6F03D1D46E24F00044D4660268F7
:100D5000946804F00304012C3AD136E0D2F860E044
:100D60000EEA0C0E91F800C044EA8C644EEA040EC0
:100D70004EF000441466EAE7D2F864E00EEA0C0E86
:100D800091F800C044EA8C644EEA040E4EF0004430
:100D90005466DCE7D2F868E00EEA0C0E91F800C069
:100DA00044EA8C644EEA040E4EF000449466CEE7AA
:100DB000D2F86CE00EEA0C0E91F800C044EA8C64A4
:100DC0004EEA040E4EF00044C0E71468E4075ED11A
:100DD000CC68012C06D052F8B03F0C78A740BB433A
:100DE000136020E052F8B04F91F800C007FA0CF7FA
:100DF0003C4314600A6804680A2A0AD3A769093ABE
:100E000002EB420293409F438B6893401F43A761CC
:100E100009E06769521C02EB420293409F438B68D2
:100E200093401F43676109682E4A102904D0112995
:100E300005D0122906D02AE093681B0204E09368CB
:100E4000DB0101E093685B02002B20DB03684FF0BD
:100E5000A044A34202D1244F009700E000949F6871
:100E600007F00307012F02D11F68FF070AD1009F77
:100E70008FB1BF6807F00307012F0CD1009F3F68B7
:100E8000FF0708D0416C41F020014164012580F842
:100E900040602846AAE6102908D011291AD0122944
:100EA000F5D1916841F480019160F0E7A342EED161
:100EB000916841F4000191600C490D4A0968B1FB49
:100EC000F2F101EB8101490000E0491E0091002987
:100ED000FBD1DCE7A342DAD1916841F08071E3E70E
:100EE00000F0FF830003005000010050700000205C
:100EF00040420F00F0B54FF0000595B004002F46BA
:100F00002E46009505D0606CC00648D4606C18B1C0
:100F100033E0012015B0F0BDA6642665E66484F8D0
:100F20004060204600F0D6F820688068C00024D4D5
:100F30002046FFF777FA0546606CC0061DD4E5B978
:100F4000606C20F4885040F0020060642068816882
:100F500021F0405181602068816841F080518160BA
:100F6000564857490068B0FBF1F000EB80004000A4
:100F700000E0401E00900028FBD120688168C90075
:100F800002D5806880000AD5606C20F0020040F035
:100F900010006064A06C40F00100A0640125606C4A
:100FA000C0067DD4002D7BD12068816849077CD4A0
:100FB000616C21F4807141F00201616441494FF09C
:100FC000A042904200D1404A0092826802F003029F
:100FD000012A02D10068C00710D1009840B1806892
:100FE00000F00300012803D100980068C00705D174
:100FF0008868626820F4403010438860D4E90210A9
:101000000843A16B012902D04FF4805200E0002276
:10101000E16942EA41321043626A3843012A0AD147
:10102000A9B1616C21F0020141F020016164A16C61
:1010300041F00101A164E16A012902D0226B114350
:10104000084321688A6812F00C0F08D012E0218D45
:101050001E4A02EB4141014341F48030EBE7CA688C
:1010600044F202039A43CA60A169626B890341EAB0
:10107000420108432168CA68154B1A400243CA60FE
:10108000206901282068016B21F00F0102D1226A3A
:10109000521E11430163A664606C20F0020000E060
:1010A00003E040F00100606406E0606C20F00200A4
:1010B00040F010006064012528462BE770000020F6
:1010C00040420F0000030050000100500000FEFFEE
:1010D00007C0F0FFF0B5194A066800241168184BE4
:1010E0000325491C87B04FF09040B6F1A04F06D0C1
:1010F000144FBE421FD1116001290DD014E01160C0
:10110000012907D1596941F080515961596901F0AC
:10111000805105910F2108E0596941F080515961D2
:10112000596901F080510591F021CDE90015029433
:10113000694600F067FB07B0F0BD000060000020CA
:1011400000100240000100507047000070B50446D6
:1011500000680026C168CA064FF0100105D5426933
:10116000D243120701D44E01C16020680269D20641
:1011700006D54269D243520602D446F48066016124
:10118000216848694FF00105C043C0073ED18A6815
:101190006A48904307D08A686948904303D08A68B8
:1011A0006848904332D18868800705D488688005F4
:1011B00002D48868800322D54A69204622F00102C1
:1011C0004A6194F83D10122904D101684A6922F459
:1011D0000F424A6190F83D10422908D0522908D0A8
:1011E000722908D080F83D5000F0F8FA09E0222179
:1011F00002E0322100E0622180F83D10F4E746F47D
:10120000006620688168504A114381602068416906
:10121000C943890706D4C068800703D0002120464F
:10122000FFF732F920684169C943C90606D400694D
:10123000800703D001212046FFF726F9206C3043B8
:10124000206420688169C9070BD04169C943C90579
:1012500007D44169C943090403D4216C41F0010159
:101260002164816989070BD54169C943890507D480
:101270004169C943090403D4216C41F0020121648E
:10128000816949070BD54169C943490507D44169BB
:10129000C943090403D4216C41F00401216481692C
:1012A00011F0700F25D04169C943090521D4416966
:1012B000C94309041DD4816901F07001402930D06F
:1012C00006DC102909D020290BD030290DD124E0CB
:1012D00050292AD0602908D12BE0216C41F0080167
:1012E00002E0216C41F010012164816921F070015C
:1012F0008161206C00280FD02068416841F0040112
:10130000416084F83D502068416948F65B72914322
:1013100041612046FFF718FF70BD216C41F02001AC
:10132000E2E7216C41F04001DEE7216C41F08001F1
:10133000DAE7216C41F48071D6E700000100000477
:101340000001000800000110190501002DE9F0411D
:10135000040004D094F83D00002518B107E00120F6
:10136000BDE8F08184F83C50204600F095F802205A
:1013700084F83D002068016821F0020101602068C6
:10138000016841F00101016000F002FB07460326FD
:1013900005E000BF00F0FCFAC01B0A2863D82068F3
:1013A0004068C007F6D020684168C90769D0A169C4
:1013B000012901683FD021F080010160E069012826
:1013C000206801683AD021F040010160206A0128BC
:1013D0002068016835D021F020010160606A012891
:1013E0002068016830D021F010010160A06A012856
:1013F000206801682BD021F008010160E06A012813
:101400002068016826D021F004010160D4E90201BE
:101410000843D4E90412114308436168491E084394
:101420002168C8612068016821F00101016000F0B5
:10143000AFFA07461DE041F08001BEE741F04001F0
:10144000C3E741F02001C8E741F01001CDE741F0CA
:101450000801D2E741F00401D7E700BF00F098FA95
:10146000C01B0A2805D984F83D6084F83C5003204D
:1014700076E720684068C007F0D120684068C00760
:1014800003D0042084F83D0069E72564012084F836
:101490003D00002064E7000000B500680E4987B0F9
:1014A000884217D10D48C16941F00071C161C0691E
:1014B000694600F0007005904FF4C0500090022083
:1014C0000190002002900320039009200490C006A0
:1014D00000F098F907B000BD006400400010024021
:1014E000704700002DE9F05F0E46016804468868E9
:1014F000400105D48868000102D48868C0006FD517
:1015000094F83C0001280CD0012784F83C7094F832
:101510003D00222808D0322808D062280ED01220A0
:1015200005E00220BDE8F09F422000E0522084F850
:101530003D008868400103D5002507E07220F6E7EA
:101540008868000101D5012500E002254FF4C07034
:1015500000EB05100A5802F001020A50216B8A685C
:10156000EAB3D4F800C05CF800301343CA68496895
:1015700042EAC1010B434CF80030216B0A7C02F0B7
:101580000F020A614FF4C271226801EB0511535832
:1015900023F00F03535022685358D4F830C0DCF8BE
:1015A00010C043EA0C035350216B4FF4C47303EB98
:1015B00005130A7DD1F8151042EA01212268D150A5
:1015C000216B4FF4C67303EB05130A7ED1F8191093
:1015D00042EA01212268D15021680A5801E00DE059
:1015E0005EE042F001020A5000F0D2F981464FF06D
:1015F0000008DFF8B8A0DFF8B8B02AE02268135876
:10160000D1F80CC0098843EA0C0343EA4151115058
:10161000B3E7701C1DD02EB100F0BAF9A0EB0900A1
:10162000B04216D9032084F83D0055B12068012D41
:1016300081680BD041F40001816084F83C80032074
:1016400070E72068816841F08001F5E741F40041CE
:10165000F2E7ADB12068012D816816D015488843A6
:101660000028D6D194F83D00422811D0522811D03C
:10167000722813D084F83D7084F83C80002051E734
:10168000206881682AEA0100EAE72BEA0100E7E71F
:10169000222000E0322084F83D00EDE76220FAE7E6
:1016A000042084F83D0001203CE700000100000414
:1016B000000100080000011070B503689968490135
:1016C00005D49968090102D49968C9007ED590F8BB
:1016D0003C10012907D0012180F83C10996849018C
:1016E00003D5002207E0022070BD9968090101D5E9
:1016F000012200E002224FF4C07101EB02115C589C
:1017000004F001045C50036B9C68ECB306687558E8
:101710002543DC685B6844EAC3031D437550036BD3
:101720001C7C04F00F041C614FF4C273046803EBCB
:101730000213E55825F00F05E5500468E558066BDF
:1017400036693543E550036B4FF4C47505EB02155C
:101750001C7DD3F8153044EA032304686351036BFE
:101760004FF4C67505EB02121C7ED3F8193044EA1B
:1017700003230468A35090F83D20222A10D0322A77
:1017800010D0622A23D000E001E012220BE00468AE
:101790006558DE681B88354345EA43536350BEE70E
:1017A000422200E0522280F83D200022026480F8AC
:1017B0003C200268535843F00103535000684169CC
:1017C00048F6017211434161002070BD01E07222B0
:1017D000E9E7042180F83D100120F6E7704700009A
:1017E00070B5044600F0D4F80546601C02D00448E9
:1017F0000078044400F0CCF8401BA042FAD370BD3E
:10180000640000202DE9F84FDFF860B100234FF0AD
:10181000010C4FF0030A4FF00F090BF1040E9DE08D
:101820000CFA03F6344022007ED04C68022C01D022
:10183000122C0ED1DC0800EB8408D8F820405D079C
:10184000EF0E09FA07F5AC430D69BD402543C8F812
:10185000205007685D0091F804800AFA05F408F04A
:101860000308A74308FA05F848EA0708C0F800800B
:101870004F68012F05D0022F03D0112F01D0122F56
:1018800011D18768D1F80C80A74308FA05F848EA17
:101890000708C0F808804768B7430E79C6F30016FA
:1018A0009E403E434660C668A6438C68AC403443C5
:1018B000C4604C68E40050D52D4CA56945F0010585
:1018C000A561A46923F0030504F001040094294CE8
:1018D0002E19B4689D072F0F09FA07F5AC43B0F134
:1018E000904F04D0244DA84203D101250CE00025DF
:1018F0000AE0224DA84201D1022505E0204DA84270
:1019000001D1032500E00525BD402543B560DBF886
:1019100000405D464E689443F60300D514432C60A6
:101920007546DEF8004000E017E04E689443B603C9
:1019300000D514432C600D4D08352C684E68944337
:10194000F60200D514432C60084D0C352C684E6807
:101950009443B60200D514432C605B1C0A681446FD
:10196000DA407FF45DAFBDE8F88F0000000401406D
:101970000010024000000140000400480008004838
:10198000000C00480AB18161704781627047000015
:1019900001488068704700006400002002488168A8
:1019A000027811448160704764000020074810B538
:1019B000016841F010010160032000F089F8002067
:1019C00000F006F800F024F8002010BD00200240CE
:1019D00070B50D4D04464FF47A712878B1FBF0F0E4
:1019E0000A490968B1FBF0F000F070FF48B9102C0B
:1019F00007D200222146501E00F04AF800206C60F9
:101A000070BD012070BD0000640000207000002047
:101A10001E4808B5816941F001018161816901F0C9
:101A200001010091C16941F08051C161C06900F0BC
:101A300080500090032000F04BF8002211466FF018
:101A40000B0000F025F8002211466FF00A0000F0AC
:101A50001FF8002211466FF0090000F019F800226B
:101A60001146501F00F014F800221146101F00F01C
:101A70000FF800221146901E00F00AF80022BDE87F
:101A800008401146501E00F003B80000001002404C
:101A9000F0B40E4B1B680C46C3F30223C3F10705D9
:101AA000042D00D90425191D072901D2002300E0C7
:101AB000DB1E012606FA05F1491E214099409E4091
:101AC000761E16403143F0BC01F08AB90CED00E0FF
:101AD000064900F0070208684FF6FF03184040EA85
:101AE0000220034A10430860704700000CED00E03C
:101AF0000000FA052DE9F84F04460068574DC00371
:101B00006FD5E8690026C00008D4E86940F080502D
:101B1000E861E869012600F08050009050480168B3
:101B2000C90512D40168804641F480710160FFF755
:101B30002FFF074605E000BFFFF72AFFC01B642800
:101B400035D8D8F80000C005F6D5286A10F44070E2
:101B500053D0A18801F4407181424ED0286A4FF4DD
:101B6000803191FAA1F2B2FA82F297003D4A4FF029
:101B70000108174420F44070C7F8008491FAA1F1DD
:101B8000B1FA81F102EB81010023C1F8003428622F
:101B9000C00732D0FFF7FCFE074641F2883A4FF00B
:101BA000020907E0FFF7F4FEC11B514502D90320EB
:101BB000BDE8F88F99FAA9F1B1FA81F141F040013D
:101BC0004846B8EB511F01D129680CE090FAA0F10A
:101BD000B1FA81F141F04001B0EB511F02D1296A05
:101BE00001E015E0696A99FAA9F0B0FA80F000F016
:101BF0001F0008FA00F21142D4D0286A616820F46C
:101C00004070084328621EB1E86920F08050E86106
:101C10002078C00705D0286BA16820F00300084396
:101C200028632078800605D5286BE16820F0100035
:101C3000084328632078000605D5E86A216920F466
:101C4000F8700843E8622088C00405D5286B6169F4
:101C500020F48070084328630020A9E700100240A8
:101C600000700040000042422DE9F047DFF870812B
:101C700005460E46D8F8000000F00700B0420CD22E
:101C8000D8F8001021F007013143C8F80010D8F847
:101C9000000000F00700B04277D12878514C80074F
:101CA00005D56068A96820F0F000084360602878D6
:101CB000C00759D06968012001290DD0022929D017
:101CC0005FF0020393FAA3F2B2FA82F242F020022A
:101CD000520904D0226803E04FF40033F2E7626A4D
:101CE00093FAA3F3B3FA83F303F01F03984002427D
:101CF0004BD0606820F0030008436060FFF748FEA7
:101D00006968074641F2883001290DD002298146D1
:101D100017D025E04FF00073D4E700BFFFF738FE7F
:101D2000C11B494501D918E081466068C0F38100B4
:101D30000128F3D118E000BFFFF72AFEC11B494577
:101D40000BD86068C0F381000228F5D10CE000BF19
:101D5000FFF71EFEC11B494502D90320BDE8F087ED
:101D6000606810F00C0FF3D1D8F80010404601F075
:101D70000701B1420BD9016821F00701314301602D
:101D8000006800F00700B04201D00120E6E72878A3
:101D9000400705D56068E96820F4E06008436060AA
:101DA0002878000706D56068296920F4605040EA69
:101DB000C100606000F022F86168F02292FAA2F29D
:101DC00001F0F001B2FA82F2D140074A515CC840FA
:101DD000064908600020FFF7FBFD0020BEE7000079
:101DE0000020024000100240603500087000002012
:101DF000014800687047000070000020144B10B5C7
:101E00005A68144802F00C0104291DD008291BD17E
:101E10004FF4701494FAA4F402F47011B4FA84F438
:101E2000E1400D4CDB6A615C0F2494FAA4F403F0EA
:101E30000F03B4FA84F4E340074C1034D203E35C9C
:101E400003D5B0FBF3F0484310BD0448484310BD30
:101E50000010024000127A004035000800093D00E1
:101E60002DE9F84F05460078F74EC0074FF0010402
:101E700025D070686704C0F38100012807D070681E
:101E8000C0F3810002281BD17068C00318D597FAEF
:101E9000A7F0B0FA80F040F02000400901D030688F
:101EA00000E0706A97FAA7F1B1FA81F101F01F0121
:101EB00004FA01F1084264D0686800287DD060E02F
:101EC0006868B0F5803F0BD010B1B0F5A02F17D0E7
:101ED000306820F480303060306820F4802002E0E8
:101EE000306840F480303060F06AA96820F00F005C
:101EF0000843F062686828B3FFF74AFD80460BE0AC
:101F0000306840F480203060EAE700BFFFF740FD12
:101F1000A0EB0800642871D897FAA7F0B0FA80F017
:101F200040F02000400901D0306800E0706A97FA64
:101F3000A7F1B1FA81F101F01F0104FA01F10842A1
:101F4000E4D01EE0FFF724FD804605E0FFF720FD0A
:101F5000A0EB08006428DED897FAA7F0B0FA80F06A
:101F600040F02000400901D0306800E0706A97FA24
:101F7000A7F1B1FA81F101F01F0104FA01F1084261
:101F8000E4D12878DFF8C48280074FF0000A4FF0D0
:101F9000020732D570684FF0F80B10F00C0F07D025
:101FA0007068C0F38100022829D17068C00326D46C
:101FB00097FAA7F0B0FA80F000E08BE040F0200044
:101FC000400901D0306800E0706A97FAA7F1B1FAD1
:101FD00081F101F01F0104FA01F1084202D02869E1
:101FE000012877D130689BFAABF26969B2FA82F2C4
:101FF00020F0F8009140084330605AE064E128691D
:1020000088B394FAA4F0B0FA80F048F82040FFF7C3
:10201000BFFC814606E000BFFFF7BAFCA0EB090059
:10202000022898D897FAA7F0B0FA80F040F0200084
:10203000400901D0306800E0706A97FAA7F1B1FA60
:1020400081F101F01F0104FA01F10842E4D0306887
:102050009BFAABF220F0F8016869B2FA82F2904084
:102060000143316025E0FFE794FAA4F1B1FA81F170
:1020700048F821A0FFF78CFC814605E0FFF788FCBB
:10208000A0EB09000228CCD897FAA7F0B0FA80F0AC
:1020900040F02000400901D0306800E0706A97FAF3
:1020A000A7F1B1FA81F101F01F0104FA01F1084230
:1020B000E4D1287800076CD5A869A8B394FAA4F0F5
:1020C000B0FA80F008EB8000C0F88044FFF760FCB5
:1020D000814607E08AE100BFFFF75AFCA0EB090048
:1020E00002289ED897FAA7F0B0FA80F040F060007E
:1020F000B4EB501F01D130680BE097FAA7F0B0FAAB
:1021000080F040F06000B7EB501F01D1306A00E072
:10211000706A97FAA7F1B1FA81F101F01F0104FA90
:1021200001F21042D8D034E0FFE794FAA4F1B1FAFA
:1021300081F108EB8101C1F880A4FFF729FC8146F9
:1021400006E000BFFFF724FCA0EB090002289AD8A4
:1021500097FAA7F0B0FA80F040F06000B4EB501F9F
:1021600001D130680BE097FAA7F0B0FA80F040F0A8
:102170006000B7EB501F01D1306A00E0706A97FA37
:10218000A7F1B1FA81F101F01F0104FA01F2104246
:10219000D8D12878400774D5F0694FF00009C00005
:1021A00009D4F06940F08050F061F0694FF0010906
:1021B00000F08050009026480168C90512D40168DB
:1021C00041F480710160FFF7E3FB834606E000BF46
:1021D000FFF7DEFBA0EB0B00642875D81C480068F5
:1021E000C005F5D5E86801280AD008B1052811D046
:1021F000306A20F001003062306A20F0040002E012
:10220000306A40F001003062E868E0B1FFF7C0FBDF
:1022100083460DE0306A40F004003062F0E700BF12
:10222000FFF7B6FBA0EB0B0141F2883081424BD89F
:1022300097FAA7F0B0FA80F040F04000B4EB501FDE
:1022400008D1306812E01DE0001002400000424258
:102250000070004097FAA7F0B0FA80F040F040001C
:10226000B7EB501F01D1306A00E0706A97FAA7F10E
:10227000B1FA81F101F01F0104FA01F21042CFD04E
:102280002EE034E0FFF784FB834607E0FFF780FB96
:10229000A0EB0B0141F28830814215D897FAA7F0E4
:1022A000B0FA80F040F04000B4EB501F01D130682C
:1022B0000CE097FAA7F0B0FA80F040F04000B7EBDE
:1022C000501F02D1306A01E083E0706A97FAA7F1EB
:1022D000B1FA81F101F01F0104FA01F21042D5D1E7
:1022E000B9F1000F03D0F06920F08050F061E86987
:1022F00080B37168C1F38101022977D04FF08071FA
:102300004F00022809D091FAA1F0B0FA80F048F805
:1023100020A0FFF73DFB05465EE0894691FAA1F15A
:102320005046B1FA81F1C24648F82100FFF730FB70
:10233000804605E0FFF72CFBA0EB0800022848D8F8
:1023400097FAA7F0B0FA80F040F02000400902D0E0
:10235000306801E056E0706A97FAA7F1B1FA81F1AE
:1023600001F01F0104FA01F10842E3D1D5E9081098
:102370000843716821F474110843706099FAA9F058
:10238000B0FA80F04AF82040FFF702FB054604E06F
:10239000FFF7FEFA401B02281BD897FAA7F0B0FA05
:1023A00080F040F02000400901D0306800E0706A01
:1023B00097FAA7F1B1FA81F101F01F0104FA01F1D6
:1023C0000842E5D01EE000BFFFF7E2FA401B0228FA
:1023D00002D90320BDE8F88F97FAA7F0B0FA80F091
:1023E00040F02000400902D0306801E00CE0706A43
:1023F00097FAA7F1B1FA81F101F01F0104FA01F196
:102400000842E1D10020E5E70120E3E72DE9F041B2
:10241000040005D00025A56294F85D0018B107E01E
:102420000120BDE8F08184F85C50204600F044F8BB
:10243000022384F85D302068016821F040010160CA
:10244000E0684FF4E066B04201D9002101E04FF4AA
:102450008051B0F5706F02D0B04200D0A562276BFA
:10246000012227B9B04201D9236300E02263D4E9F5
:1024700001031843D4E9043633431843238B03F490
:1024800000731843E3691843236A1843A36A184387
:1024900023681860636B606AA66918430427E368C1
:1024A00007EA164633431843084321684860256607
:1024B00084F85D200020B4E700B500680E4987B0BD
:1024C000884216D10D48816941F48051816180694B
:1024D000694600F480500590382000900220019059
:1024E0000020029003200390052004900448FFF789
:1024F00089F907B000BD0000003001400010024023
:10250000000400482DE9F84F04464068002698462C
:1025100017460D464FF0040AB0F5827F01D1A0683E
:1025200090B194F85C00012819D04FF0010B84F8A9
:102530005CB0FFF72DFA009094F85D004FF00009B1
:1025400001280ED002268EE084F85DA013460A46CC
:102550002046CDF8008000F08DF8BDE8F88F02200D
:10256000FBE7002D7ED0002F7CD084F85DA0C4F85E
:1025700060902564A4F84470A4F84670C4F83890BC
:10258000A4F83C90A4F83E90C4F84C90C4F8509045
:10259000E0684FF4E06188422068426802D922F482
:1025A000805201E042F480524260A068B0F5004FD2
:1025B00004D12068026822F4804202602068026828
:1025C000520603D4026842F040020260E06888428A
:1025D00019D939E020688168C90708D0007B05F85F
:1025E000010BB4F84600401EA4F846000BE0B8F119
:1025F000000F26D0B8F1FF3F05D0FFF7C9F90099C9
:10260000411A41451DD2B4F846000028E2D11FE02E
:1026100020688168C90708D0C06825F8020BB4F8A3
:102620004600401EA4F846000EE0B8F1000F08D0A6
:10263000B8F1FF3F08D0FFF7ABF90099411A4145C7
:1026400002D303260FE00DE0B4F846000028DFD1E6
:1026500041462046009A00F0FDFB08B1202020668C
:10266000206E00B1012684F85DB084F85C9030469D
:1026700073E700002DE9F05F044690F85C00002647
:102680000A9F994692460D464FF0010801280ED048
:10269000012084F85C00FFF77BF9834694F85D0025
:1026A000616801280CD0B1F5827F07D102E00220D9
:1026B000BDE8F09FA16809B9042801D00226F0E026
:1026C000002D79D0BAF1000FFBD0B9F1000FF8D08E
:1026D00094F85D00042802D0052084F85D000020F5
:1026E0002066C4F840A0A4F84690A4F84490A563DE
:1026F000A4F83E90A4F83C90E0642065E0684FF4B4
:10270000E061884203D8B4F84600012804D9206863
:10271000426822F4805203E02068426842F480520A
:10272000426020680268520603D4026842F0400208
:102730000260E068884260683FD910B1E08F0128EC
:1027400032D1216835F8020BC860E08F401EE08767
:102750002AE000BFB8F1000F0DD0E08F58B120681B
:102760008168890707D535F8021BC160E08F401EDC
:10277000E0874FF00008B4F8460068B1206881682F
:10278000C90709D0C0682AF8020BB4F84600401EF9
:10279000A4F846004FF00108781C05D0FFF7F8F8C0
:1027A000A0EB0B00B84268D2E08F0028D2D1B4F879
:1027B00046000028CED169E072E010B1E08F012818
:1027C0005DD1E08F012806D9216835F8020BC86079
:1027D000E08F801E05E0206815F8011B0173E08F73
:1027E000401EE0874BE000BFB8F1000F16D0E08F2D
:1027F000A0B120688168890710D5E18F012905D92A
:1028000035F8021BC160E08F801E04E015F8011B43
:102810000173E08F401EE0874FF00008B4F84600D7
:1028200018B320688168C9071FD0B4F84610012981
:1028300011D9C0682AF8020BB4F84600801EA4F82B
:102840004600B4F8460001280DD82068416841F4DC
:102850008051416007E0017B0AF8011BB4F8460093
:10286000401EA4F846004FF00108781C07D0FFF77F
:102870008FF8A0EB0B00B84201D3032611E0E08FE4
:102880000028B1D1B4F846000028ADD15A463946E7
:10289000204600F019FB08B120202066206E00B110
:1028A0000126012084F85D00002084F85C00304699
:1028B000FEE64FF0E0210428086903D020F0040070
:1028C0000861704740F00400FAE7704710B5401EF9
:1028D000B0F1807F01D3012010BD4FF0E024606192
:1028E0000F21601700F07CFA0020A0610720206112
:1028F000002010BD10B5FFF7E8FF10BD30B590F80F
:102900003C20012A1CD0012280F83C2003685A6830
:102910009C680C4DAB4203D122F470054A682A43EF
:1029200022F070050A6889682A4324F08004214354
:102930005A6002689160002180F83C10084630BD62
:10294000022030BD002C014010B5040003D094F8E3
:102950003D0010B107E0012010BD002084F83C00CC
:10296000204600F00DF8022084F83D00211D20686B
:1029700000F0DEFB012084F83D00002010BD0000C7
:1029800008B50C4A01680C48914207D1816941F4AD
:1029900000618161806900F4006009E0B1F1804F5D
:1029A00007D1C16941F00101C161C06900F00100B6
:1029B000009008BD002C01400010024070B5044694
:1029C00090F83C00012817D0012584F83C500220E3
:1029D00084F83D0022689068364E304020F47F40F5
:1029E00090600868502839D00DDC20285BD005DCC9
:1029F00098B3102843D153E0022070BD302855D041
:102A000040283CD141E0602830D070280CD0B0F58F
:102A1000805F03D0B0F5005F31D112E0206881689B
:102A2000244A7032114016E0CB68D1E901212068B8
:102A300000F0C2FB21688868304040F07700886071
:102A40001DE0CB68D1E90121206800F0B5FB2068CA
:102A5000816841F48041816011E01EE0CA684968E4
:102A6000206800F0BBFB5021206806E0CA68496876
:102A7000206800F0C4FB6021206800F0A7FB84F808
:102A80003D50002084F83C0070BDCA684968206849
:102A900000F0A4FB40212068EFE700212068ECE76C
:102AA00010212068E9E720212068E6E7302120682E
:102AB000E3E7000088FFFEFFFEE7000070B52E4848
:102AC00096B04FF0A041016001254FF40031002481
:102AD0000561C0E90114C4614462C0E90B54C460DB
:102AE000056204264463C0E905648463FEF702FAC4
:102AF00000B1FEE712A920481294FDF7E5FF00B1EE
:102B0000FEE70C950F94CDE90D5410940CA91A48CA
:102B10001194FEF747F800B1FEE700950394CDE964
:102B20000154CDE90A54CDE906640994089405944A
:102B3000694611480494FDF7D1FD00B1FEE702207B
:102B40000090019069460C48FDF7C8FD00B1FEE712
:102B500003200090019069460748FDF7BFFD00B1D2
:102B6000FEE70096694604480196FDF7B7FD002888
:102B700000D0FEE716B070BD7400002070B52B4881
:102B800092B0294901600125490200240561C0E98C
:102B90000114C4614462C0E90B54C4600562042698
:102BA0004463C0E905648463FEF7A4F900B1FEE75D
:102BB0000C950F94CDE90D5410940CA91B48119459
:102BC000FDF7F0FF00B1FEE700950394CDE9015455
:102BD000CDE90A54CDE90664099408940594694640
:102BE00012480494FDF77AFD00B1FEE70220009040
:102BF000019069460D48FDF771FD00B1FEE7032025
:102C00000090019069460948FDF768FD00B1FEE7B4
:102C10000096694605480196FDF760FD002800D042
:102C2000FEE712B070BD000000010050C800002097
:102C30000C4810B50A4901601021416000218160F3
:102C4000C160016141618161C16101624162816272
:102C5000C162FEF77BFB002800D0FEE710BD00003C
:102C6000006400401C0100202DE9F0411F4886B09F
:102C7000416941F480014161416901F4800105919C
:102C8000416941F400314161416901F4003105912C
:102C9000416941F4802141614069154F00F4802071
:102CA00005900022C3213846FEF76CFE4FF4E06623
:102CB0004FF09048002231464046FEF763FEC320A5
:102CC000009001250024CDE901546946384603945B
:102CD000FEF798FD0096CDE90154694640460394FD
:102CE000FEF790FD06B0BDE8F08100000010024044
:102CF00000040048104810B50E4901604FF482717D
:102D0000416000214FF47062C0E902124FF400727A
:102D10000161C0E90512C161016207224162C0E997
:102D20000A12016308214163FFF770FB002800D0FD
:102D3000FEE710BD003001406001002010B51348CF
:102D400088B011490024C0E900148460C4600461A3
:102D500044618461FFF7F8FD00B1FEE74FF4805055
:102D6000039003A90948FFF729FE00B1FEE700948C
:102D70000194694605480294FFF7C0FD002800D081
:102D8000FEE708B010BD0000002C0140C401002087
:102D900010B5114888B04FF080410024C0E90014FC
:102DA0008460C46004618461FFF7CEFD00B1FEE77A
:102DB0004FF48050039003A90748FFF7FFFD00B1CF
:102DC000FEE70094694604480294FFF797FD002847
:102DD00000D0FEE708B010BD04020020FEE77047F7
:102DE0000907090E002806DA00F00F0000F1E020C4
:102DF00080F8141D704700F1E02080F8001470473F
:102E0000704700006423042201490248FFF77ABB9F
:102E10004000002060010020642304220149024890
:102E2000FFF770BB480000206001002064230422EB
:102E300001490248FFF766BB5000002060010020F6
:102E40006423042201490248FFF75CBB58000020BC
:102E5000600100202DE9F843044640684FF4827673
:102E6000154689464FF400474FF48068B04209D1B7
:102E7000A068B84201D0404504D12068016821F023
:102E8000400101604B46002280212046009500F061
:102E90008EF880B96068B04214D1A068B84201D001
:102EA00040450FD14B4600224FF4C06120460095AB
:102EB00000F02EF830B1206E40F020002066032094
:102EC000BDE8F8830020FBE7F8B515460E460B4633
:102ED0000092044600224FF4C05100F019F888B95E
:102EE0003346002280212046009500F060F848B962
:102EF000334600224FF4C0612046009500F008F8E8
:102F0000002804D0206E40F0200020660320F8BD89
:102F10002DE9F8431D4617460E4604464FF4C06897
:102F2000DDF820903CE0464505D127B9007B8DF8BF
:102F300000009DF80000681C32D02DB1FEF728FD7E
:102F4000A0EB0900A8422BD32068416821F0E001E2
:102F500041606068B0F5827F0BD1A068B0F5004F8A
:102F600002D0B0F5806F04D12068016821F04001E3
:102F70000160A06AB0F5005F09D12068016821F402
:102F8000005101602068016841F400510160012096
:102F900084F85D00002084F85C000320BDE8F8831D
:102FA000206881683140B942BDD10020F6E72DE9A3
:102FB000F0411D4617460E460446DDF8188034E001
:102FC000681C32D02DB1FEF7E3FCA0EB0800A8424C
:102FD0002BD32068416821F0E00141606068B0F5C2
:102FE000827F0BD1A068B0F5004F02D0B0F5806FA2
:102FF00004D12068016821F040010160A06AB0F5A9
:10300000005F09D12068016821F400510160206847
:10301000016841F400510160012084F85D00002046
:1030200084F85C000320BDE8F0812068806836EAFF
:10303000000004D00020B842C2D10020F3E70120F4
:10304000F9E7704710B5FEF7A9FCBDE81040FFF79F
:1030500051BC30B595B00225012004900095102098
:10306000059000244FF4E010CDE90840079568462C
:10307000FEF7F6FE00B1FEE70F200A90CDE90B54F3
:103080000D9401210AA80E94FEF7EEFD00B1FEE7B3
:103090004FF4805014940F900FA8FEF72BFD00B151
:1030A000FEE7FEF7A5FE4FF47A71B0FBF1F0FFF7F3
:1030B0000DFC0420FFF7FDFB00221146501EFEF719
:1030C000E7FC15B030BD00001448016841F4700100
:1030D00001601348016841F0010101604168114A33
:1030E000114041600168104A11400160016821F4FB
:1030F00080210160416821F4FE014160C16A21F034
:103100000F01C162016B094A114001630021816016
:103110000249C003803908607047000088ED00E074
:10312000001002400CC07FF8FFFFF6FECCFC00FF51
:10313000F0B502681B4B1C4F4FF0804C984203D0F7
:10314000604501D0B84203D122F070044A6822439E
:10315000164C174D174E984209D0604507D0B8421B
:1031600005D0A04203D0A84201D0B04203D122F43E
:103170004077CA683A434F6922F080023A430260BE
:103180008A68C2620A688262984205D0A04203D06F
:10319000A84201D0B04201D1096901630121416116
:1031A000F0BD0000002C0140000400400040014040
:1031B000004401400048014010B5846842EA0322FF
:1031C00024F47F440A432243826010BD826822F0C7
:1031D00070020A4342F007018160704710B5036A2C
:1031E000046A24F001040462846924F0F00444EACF
:1031F000021423F00A020A438461026210BD10B572
:10320000036A23F0100303628369046A23F47043A2
:1032100043EA023224F0A00343EA01118261016211
:1032200010BDFEE702E008C8121F08C1002AFAD14B
:1032300070477047002001E001C1121F002AFBD136
:10324000704700002DED088BFEF7B0FBFFF701FF84
:10325000FFF70AFDFFF732FCFFF790FCFFF76EFD6A
:10326000FFF7E6FCFFF746FDFFF792FDAB4C0026AB
:10327000A4F5947004250463A6604FF40D702561D5
:103280002060A4F59470FEF717FA0820206107204B
:10329000C4E90105A24D012211462846FEF772FB42
:1032A000012202212846FEF76DFB012280212846DB
:1032B000FEF768FB012240212846FEF763FBDFF89A
:1032C000649209F1080A09F1100B9FED97AB984F32
:1032D0009FED98BBA046A9F1400400BFFDF794F90B
:1032E0000520FEF77DFAFFF78DFD0520FEF778FA41
:1032F000FDF76AF9FDF7A2F90520FEF771FAFFF76D
:103300008BFD0520FEF76CFAFDF766F9FDF7B0F9C5
:103310000520FEF765FAFFF789FD0520FEF760FA44
:10332000FDF762F9FDF7BEF90520FEF759FAFFF740
:1033300087FD0520FEF754FAFDF75EF9D9F8000085
:103340004FEA3045C5F30A106561FCF7BBFFB0EEEC
:103350004A8AF0EE6A8A53EC182BFCF741FFFCF71F
:10336000C2FFA06221690A09120501D54042A0628C
:10337000002904DA07EB91402061606901E0A80CA4
:103380006061FCF79FFFB0EE4B9AF0EE6B9A53EC46
:10339000192BFCF725FFFCF7A6FFE062002800DAF6
:1033A000E662DAF800004FEA3045C5F30A102561FD
:1033B000FCF788FF53EC182BFCF712FFFCF793FF88
:1033C00029092062090501D540422062002D02DA58
:1033D00007EB954000E0A80C2061FCF773FF53EC6D
:1033E000192BFCF7FDFEFCF77EFF6062002800DA77
:1033F0006662DBF800004FEA3045C5F30A10A561AC
:10340000FCF760FF53EC182BFCF7EAFEFCF76BFFB0
:1034100029092063090501D540422063002D02DA05
:1034200007EB954000E0A80CA061FCF74BFF53ECC4
:10343000192BFCF7D5FEFCF756FF6063002800DA75
:1034400066633848183000684FEA3045C5F30A1003
:10345000E561FCF737FF53EC182BFCF7C1FEFCF7D6
:1034600042FF2909E063090501D54042E063002DD0
:1034700002DA07EB954000E0A80CE061FCF722FFC0
:1034800053EC192BFCF7ACFEFCF72DFFA0630028D2
:1034900000DAA6634FF4FA70FEF7A2F9A08D20813E
:1034A000010A217060700520FEF79AF9A08D6081F5
:1034B0002089010AA170E0700520FEF791F9A08D26
:1034C000A0812089010A217160710520FEF788F929
:1034D000A08DE0812089010AA171E0710520FEF72D
:1034E0007FF9217888F81410617888F81510A17890
:1034F00088F81610E17888F81710217988F81810E4
:10350000617988F81910A17988F81A10E17988F89A
:103510001B1000210948FDF7E5FFDFE6440200200B
:103520000004004840000020000000000000B03F00
:1035300000C0FFFF000000000000D0BF1C01002001
:1035400002030405060708090A0B0C0D0E0F1010E4
:103550000102030405060708090A0B0C0D0E0F10E3
:103560000000000000000000010203040607080933
:10357000903500080000002074000000243200088C
:103580000436000874000020EC0500003432000806
:10359000000000000000000000000000000000002B
:1035A000000000000000000000000000000000001B
:1035B000000000000000000000000000000000000B
:1035C00000000000000000000000000000000000FB
:1035D00000000000000000000000000000000000EB
:1035E00000000000000000000000000000000000DB
:1035F00000000000010000001000000000000000BA
:0436000000127A003A
:040000050800018965
:00000001FF
