:020000020000FC
:0200000028C016
:0200040018954D
:02000800189549
:02000C00189545
:02001000189541
:0200140018953D
:02001800189539
:02001C00189535
:02002000189531
:0200240018952D
:02002800189529
:02002C0090C082
:02003000189521
:02003400CFC03B
:0200380074C092
:02003C00189515
:02004000189511
:0200440018950D
:02004800189509
:02004C00D3C01F
:1000500018950FE50DBF04E00EBF0FE107BB00EEE2
:1000600008BB02E001BB0FEF02BB09E210E009B9D7
:1000700010BD04E90AB906E800BD01E00BB901E1D1
:100080000CBF0DE003BF222400E007B9789413D021
:1000900005D008D010D002D005D0F9CF21FEFECF78
:1000A0000DD00895E89420FE689420F800E220FE28
:1000B00001E207B908950EEC06B9089501E0083091
:1000C00011F403E00AC0043011F402E006C002306B
:1000D00011F401E002C0013029F0369447940A95EA
:1000E0000030D9F73694479436944794042D33243E
:1000F000442420FE202F20FC302F003918F0E894F3
:1001000021F8089520FE02C020FC04C003E008BBD3
:10011000506004C051607FEF82E000C0E89421F895
:1001200008950F931F930FB70F9304B115B1400EAD
:10013000311E9395913039F00EEC06B90F910FBF37
:100140001F910F9118959927689421F8F7CF0F9375
:100150001F930FB70F931BB10CB105C00F910FBFC9
:100160001F910F9118951C7109F0F8CF552409F0D3
:100170000BC0043599F7589800E002BF0DE003BFAB
:1001800002E109BF5394EACF10E0512E013029F06B
:10019000023041F0043059F0E1CF50FF0EC003E0CF
:1001A00008BB0FC051FF09C00CE008BB0AC05030AB
:1001B00021F4722F832F09D0D1CF75E0852F05D080
:1001C000CDCF71E081E001D0C9CFC49A08E40AB96B
:1001D0007CB908950F930FB70F931F938CB900E963
:1001E0000AB9C498599A689422F80F910FBF1F91C9
:1001F0000F9118950F931F930FB70F93002709BF07
:100200005524C498599A0F910FBF1F910F911895BB
:00000001FF
